{
  "_format": "hh-sol-artifact-1",
  "contractName": "WavePortal",
  "sourceName": "contracts/WavePortal.sol",
  "abi": [
    {
      "inputs": [],
      "stateMutability": "payable",
      "type": "constructor"
    },
    {
      "anonymous": false,
      "inputs": [
        {
          "indexed": true,
          "internalType": "address",
          "name": "from",
          "type": "address"
        },
        {
          "indexed": false,
          "internalType": "uint256",
          "name": "timestamp",
          "type": "uint256"
        },
        {
          "indexed": false,
          "internalType": "string",
          "name": "message",
          "type": "string"
        },
        {
          "indexed": false,
          "internalType": "bool",
          "name": "",
          "type": "bool"
        }
      ],
      "name": "NewWave",
      "type": "event"
    },
    {
      "inputs": [
        {
          "internalType": "address",
          "name": "blockedUser",
          "type": "address"
        }
      ],
      "name": "blockUser",
      "outputs": [],
      "stateMutability": "nonpayable",
      "type": "function"
    },
    {
      "inputs": [],
      "name": "getAllBlockedUsers",
      "outputs": [
        {
          "internalType": "address[]",
          "name": "",
          "type": "address[]"
        }
      ],
      "stateMutability": "view",
      "type": "function"
    },
    {
      "inputs": [],
      "name": "getAllWaves",
      "outputs": [
        {
          "components": [
            {
              "internalType": "address",
              "name": "waver",
              "type": "address"
            },
            {
              "internalType": "string",
              "name": "message",
              "type": "string"
            },
            {
              "internalType": "uint256",
              "name": "timestamp",
              "type": "uint256"
            },
            {
              "internalType": "bool",
              "name": "winner",
              "type": "bool"
            }
          ],
          "internalType": "struct WavePortal.Wave[]",
          "name": "",
          "type": "tuple[]"
        }
      ],
      "stateMutability": "view",
      "type": "function"
    },
    {
      "inputs": [],
      "name": "getTotalWaves",
      "outputs": [
        {
          "internalType": "uint256",
          "name": "",
          "type": "uint256"
        }
      ],
      "stateMutability": "view",
      "type": "function"
    },
    {
      "inputs": [
        {
          "internalType": "address",
          "name": "",
          "type": "address"
        }
      ],
      "name": "isBlocked",
      "outputs": [
        {
          "internalType": "bool",
          "name": "",
          "type": "bool"
        }
      ],
      "stateMutability": "view",
      "type": "function"
    },
    {
      "inputs": [
        {
          "internalType": "string",
          "name": "_message",
          "type": "string"
        }
      ],
      "name": "wave",
      "outputs": [],
      "stateMutability": "nonpayable",
      "type": "function"
    }
  ],
  "bytecode": "0x60806040526200003360405180606001604052806025815260200162001848602591396200005b60201b620009111760201c565b60644442620000439190620001a8565b6200004f919062000245565b600381905550620002ec565b620000fb8160405160240162000072919062000168565b6040516020818303038152906040527f41304fac000000000000000000000000000000000000000000000000000000007bffffffffffffffffffffffffffffffffffffffffffffffffffffffff19166020820180517bffffffffffffffffffffffffffffffffffffffffffffffffffffffff8381831617835250505050620000fe60201b60201c565b50565b60008151905060006a636f6e736f6c652e6c6f679050602083016000808483855afa5050505050565b600062000134826200018c565b62000140818562000197565b9350620001528185602086016200020f565b6200015d81620002db565b840191505092915050565b6000602082019050818103600083015262000184818462000127565b905092915050565b600081519050919050565b600082825260208201905092915050565b6000620001b58262000205565b9150620001c28362000205565b9250827fffffffffffffffffffffffffffffffffffffffffffffffffffffffffffffffff03821115620001fa57620001f96200027d565b5b828201905092915050565b6000819050919050565b60005b838110156200022f57808201518184015260208101905062000212565b838111156200023f576000848401525b50505050565b6000620002528262000205565b91506200025f8362000205565b925082620002725762000271620002ac565b5b828206905092915050565b7f4e487b7100000000000000000000000000000000000000000000000000000000600052601160045260246000fd5b7f4e487b7100000000000000000000000000000000000000000000000000000000600052601260045260246000fd5b6000601f19601f8301169050919050565b61154c80620002fc6000396000f3fe608060405234801561001057600080fd5b50600436106100625760003560e01c80633da0132514610067578063449d46c0146100835780639076bfc71461009f5780639a2cdc08146100bd578063bd43a908146100db578063fbac3951146100f9575b600080fd5b610081600480360381019061007c9190610c2b565b610129565b005b61009d60048036038101906100989190610c54565b6102bc565b005b6100a76106ac565b6040516100b4919061104a565b60405180910390f35b6100c561073a565b6040516100d2919061118b565b60405180910390f35b6100e3610785565b6040516100f0919061106c565b60405180910390f35b610113600480360381019061010e9190610c2b565b6108f1565b604051610120919061108e565b60405180910390f35b600260008273ffffffffffffffffffffffffffffffffffffffff1673ffffffffffffffffffffffffffffffffffffffff16815260200190815260200160002060009054906101000a900460ff16156101bf576101ba6040518060400160405280601a81526020017f5573657220257320697320616c726561647920626c6f636b6564000000000000815250826109aa565b600080fd5b6001600260008373ffffffffffffffffffffffffffffffffffffffff1673ffffffffffffffffffffffffffffffffffffffff16815260200190815260200160002060006101000a81548160ff0219169083151502179055506001819080600181540180825580915050600190039060005260206000200160009091909190916101000a81548173ffffffffffffffffffffffffffffffffffffffff021916908373ffffffffffffffffffffffffffffffffffffffff1602179055506102b96040518060400160405280601881526020017f7573657220257320686173206265656e20626c6f636b65640000000000000000815250826109aa565b50565b600260003373ffffffffffffffffffffffffffffffffffffffff1673ffffffffffffffffffffffffffffffffffffffff16815260200190815260200160002060009054906101000a900460ff1615610349576040517f08c379a00000000000000000000000000000000000000000000000000000000081526004016103409061116b565b60405180910390fd5b6000600160008082825461035d91906112ef565b925050819055506103a36040518060400160405280600d81526020017f2573206861732077617665642100000000000000000000000000000000000000815250336109aa565b606460035442446103b491906112ef565b6103be91906112ef565b6103c89190611401565b60038190555061040f6040518060400160405280601681526020017f52616e646f6d20232067656e6572617465643a20256400000000000000000000815250600354610a46565b603260035411610559576104586040518060400160405280600781526020017f257320776f6e2100000000000000000000000000000000000000000000000000815250336109aa565b6000655af3107a40009050478111156104a6576040517f08c379a000000000000000000000000000000000000000000000000000000000815260040161049d9061112b565b60405180910390fd5b60003373ffffffffffffffffffffffffffffffffffffffff16826040516104cc90611035565b60006040518083038185875af1925050503d8060008114610509576040519150601f19603f3d011682016040523d82523d6000602084013e61050e565b606091505b5050905080610552576040517f08c379a00000000000000000000000000000000000000000000000000000000081526004016105499061114b565b60405180910390fd5b6001925050505b600460405180608001604052803373ffffffffffffffffffffffffffffffffffffffff168152602001848152602001428152602001831515815250908060018154018082558091505060019003906000526020600020906004020160009091909190915060008201518160000160006101000a81548173ffffffffffffffffffffffffffffffffffffffff021916908373ffffffffffffffffffffffffffffffffffffffff1602179055506020820151816001019080519060200190610620929190610b0b565b506040820151816002015560608201518160030160006101000a81548160ff02191690831515021790555050503373ffffffffffffffffffffffffffffffffffffffff167f6d1607feb02544462392cd79bc9fc3cea2a1dd50600d5b503009b84ae27748ca428484604051610697939291906111a6565b60405180910390a26106a833610129565b5050565b6060600180548060200260200160405190810160405280929190818152602001828054801561073057602002820191906000526020600020905b8160009054906101000a900473ffffffffffffffffffffffffffffffffffffffff1673ffffffffffffffffffffffffffffffffffffffff16815260200190600101908083116106e6575b5050505050905090565b600061077d6040518060400160405280601781526020017f5765206861766520256420746f74616c20776176657321000000000000000000815250600054610a46565b600054905090565b60606004805480602002602001604051908101604052809291908181526020016000905b828210156108e857838290600052602060002090600402016040518060800160405290816000820160009054906101000a900473ffffffffffffffffffffffffffffffffffffffff1673ffffffffffffffffffffffffffffffffffffffff1673ffffffffffffffffffffffffffffffffffffffff168152602001600182018054610832906113cf565b80601f016020809104026020016040519081016040528092919081815260200182805461085e906113cf565b80156108ab5780601f10610880576101008083540402835291602001916108ab565b820191906000526020600020905b81548152906001019060200180831161088e57829003601f168201915b50505050508152602001600282015481526020016003820160009054906101000a900460ff161515151581525050815260200190600101906107a9565b50505050905090565b60026020528060005260406000206000915054906101000a900460ff1681565b6109a78160405160240161092591906110a9565b6040516020818303038152906040527f41304fac000000000000000000000000000000000000000000000000000000007bffffffffffffffffffffffffffffffffffffffffffffffffffffffff19166020820180517bffffffffffffffffffffffffffffffffffffffffffffffffffffffff8381831617835250505050610ae2565b50565b610a4282826040516024016109c09291906110cb565b6040516020818303038152906040527f319af333000000000000000000000000000000000000000000000000000000007bffffffffffffffffffffffffffffffffffffffffffffffffffffffff19166020820180517bffffffffffffffffffffffffffffffffffffffffffffffffffffffff8381831617835250505050610ae2565b5050565b610ade8282604051602401610a5c9291906110fb565b6040516020818303038152906040527f9710a9d0000000000000000000000000000000000000000000000000000000007bffffffffffffffffffffffffffffffffffffffffffffffffffffffff19166020820180517bffffffffffffffffffffffffffffffffffffffffffffffffffffffff8381831617835250505050610ae2565b5050565b60008151905060006a636f6e736f6c652e6c6f679050602083016000808483855afa5050505050565b828054610b17906113cf565b90600052602060002090601f016020900481019282610b395760008555610b80565b82601f10610b5257805160ff1916838001178555610b80565b82800160010185558215610b80579182015b82811115610b7f578251825591602001919060010190610b64565b5b509050610b8d9190610b91565b5090565b5b80821115610baa576000816000905550600101610b92565b5090565b6000610bc1610bbc84611215565b6111e4565b905082815260208101848484011115610bd957600080fd5b610be484828561138d565b509392505050565b600081359050610bfb816114ff565b92915050565b600082601f830112610c1257600080fd5b8135610c22848260208601610bae565b91505092915050565b600060208284031215610c3d57600080fd5b6000610c4b84828501610bec565b91505092915050565b600060208284031215610c6657600080fd5b600082013567ffffffffffffffff811115610c8057600080fd5b610c8c84828501610c01565b91505092915050565b6000610ca18383610cc1565b60208301905092915050565b6000610cb98383610fb4565b905092915050565b610cca81611345565b82525050565b610cd981611345565b82525050565b6000610cea82611265565b610cf481856112a0565b9350610cff83611245565b8060005b83811015610d30578151610d178882610c95565b9750610d2283611286565b925050600181019050610d03565b5085935050505092915050565b6000610d4882611270565b610d5281856112b1565b935083602082028501610d6485611255565b8060005b85811015610da05784840389528151610d818582610cad565b9450610d8c83611293565b925060208a01995050600181019050610d68565b50829750879550505050505092915050565b610dbb81611357565b82525050565b610dca81611357565b82525050565b6000610ddb8261127b565b610de581856112cd565b9350610df581856020860161139c565b610dfe816114ee565b840191505092915050565b6000610e148261127b565b610e1e81856112de565b9350610e2e81856020860161139c565b610e37816114ee565b840191505092915050565b6000610e4f6034836112de565b91507f547279696e6720746f207769746864726177206d6f7265206d6f6e657920746860008301527f616e2074686520636f6e7472616374206861732e0000000000000000000000006020830152604082019050919050565b6000610eb56027836112de565b91507f4661696c656420746f207769746864726177206d6f6e65792066726f6d20636f60008301527f6e74726163742e000000000000000000000000000000000000000000000000006020830152604082019050919050565b6000610f1b6000836112c2565b9150600082019050919050565b6000610f35604e836112de565b91507f596f752068617665206265656e2070726576696f75736c7920626c6f636b656460008301527f2e20456e6a6f79207468652067756c616720666f7220616c6c20657465726e6960208301527f74792c20736f727279206275622e0000000000000000000000000000000000006040830152606082019050919050565b6000608083016000830151610fcc6000860182610cc1565b5060208301518482036020860152610fe48282610dd0565b9150506040830151610ff96040860182611017565b50606083015161100c6060860182610db2565b508091505092915050565b61102081611383565b82525050565b61102f81611383565b82525050565b600061104082610f0e565b9150819050919050565b600060208201905081810360008301526110648184610cdf565b905092915050565b600060208201905081810360008301526110868184610d3d565b905092915050565b60006020820190506110a36000830184610dc1565b92915050565b600060208201905081810360008301526110c38184610e09565b905092915050565b600060408201905081810360008301526110e58185610e09565b90506110f46020830184610cd0565b9392505050565b600060408201905081810360008301526111158185610e09565b90506111246020830184611026565b9392505050565b6000602082019050818103600083015261114481610e42565b9050919050565b6000602082019050818103600083015261116481610ea8565b9050919050565b6000602082019050818103600083015261118481610f28565b9050919050565b60006020820190506111a06000830184611026565b92915050565b60006060820190506111bb6000830186611026565b81810360208301526111cd8185610e09565b90506111dc6040830184610dc1565b949350505050565b6000604051905081810181811067ffffffffffffffff8211171561120b5761120a6114bf565b5b8060405250919050565b600067ffffffffffffffff8211156112305761122f6114bf565b5b601f19601f8301169050602081019050919050565b6000819050602082019050919050565b6000819050602082019050919050565b600081519050919050565b600081519050919050565b600081519050919050565b6000602082019050919050565b6000602082019050919050565b600082825260208201905092915050565b600082825260208201905092915050565b600081905092915050565b600082825260208201905092915050565b600082825260208201905092915050565b60006112fa82611383565b915061130583611383565b9250827fffffffffffffffffffffffffffffffffffffffffffffffffffffffffffffffff0382111561133a57611339611432565b5b828201905092915050565b600061135082611363565b9050919050565b60008115159050919050565b600073ffffffffffffffffffffffffffffffffffffffff82169050919050565b6000819050919050565b82818337600083830152505050565b60005b838110156113ba57808201518184015260208101905061139f565b838111156113c9576000848401525b50505050565b600060028204905060018216806113e757607f821691505b602082108114156113fb576113fa611490565b5b50919050565b600061140c82611383565b915061141783611383565b92508261142757611426611461565b5b828206905092915050565b7f4e487b7100000000000000000000000000000000000000000000000000000000600052601160045260246000fd5b7f4e487b7100000000000000000000000000000000000000000000000000000000600052601260045260246000fd5b7f4e487b7100000000000000000000000000000000000000000000000000000000600052602260045260246000fd5b7f4e487b7100000000000000000000000000000000000000000000000000000000600052604160045260246000fd5b6000601f19601f8301169050919050565b61150881611345565b811461151357600080fd5b5056fea26469706673582212204c1c5db526a04a203e8717566ed5a1c5203c6f54c770e207f927525f3871c91064736f6c63430008000033596f20796f2c204920616d206120636f6e747261637420616e64204920616d20736d617274",
  "linkReferences": {},
  "deployedLinkReferences": {}
}